:020000043400C6
:1000000000400634E1F80034990A00349B0A0034B9
:100010009D0A00349F0A0034A10A0034A30A003468
:10002000000000000000000000000000A50A0034ED
:10003000A70A003400000000A90A0034AB0A00340B
:100040003DF90034000000003DF900343DF9003472
:100050003DF900343DF900343DF900343DF90034F8
:100060003DF90034000000003DF900343DF9003452
:100070003DF900343DF900343DF900340000000042
:100080003DF90034000000003DF900343DF9003432
:100090003DF900343DF900343DF900343DF90034B8
:1000A0003DF900343DF900343DF900343DF90034A8
:1000B0003DF900343DF900343DF900343DF9003498
:1000C0003DF900343DF900343DF900343DF9003488
:1000D0003DF900343DF900343DF900343DF9003478
:1000E0003DF90034000000003DF900343DF90034D2
:1000F0003DF900343DF900343DF900343DF9003458
:100100003DF9003400000000000000000000000085
:100110003DF900342D4500343DF900343DF90034FB
:100120003DF900343DF900343DF900343DF9003427
:100130003DF900343DF900343DF900343DF9003417
:100140003DF900343DF900343DF900343DF9003407
:100150003DF900343DF900343DF900343DF90034F7
:0C034000000000003DF900343DF90034DD
:1003500010B5054C237833B9044B13B10448AFF3FF
:1003600000800123237010BDF0F70434000000006A
:100370009C32013408B5034B1BB103490348AFF36A
:10038000008008BD00000000F4F704349C32013402
:10039000034613F8012B002AFBD1181A01387047C5
:1003A00080F0004002E000BF81F0004142001FBF2A
:1003B0005FEA410392EA030F7FEA226C7FEA236C33
:1003C0006AD04FEA1262D2EB1363C1BFD218414028
:1003D00048404140B8BF5B42192B88BF704710F0BE
:1003E000004F40F4000020F07F4018BF404211F061
:1003F000004F41F4000121F07F4118BF494292EAC9
:10040000030F3FD0A2F1010241FA03FC10EB0C00F4
:10041000C3F1200301FA03F100F0004302D5494281
:1004200060EB4000B0F5000F13D3B0F1807F06D32E
:1004300040084FEA310102F10102FE2A51D2B1F126
:10044000004F40EBC25008BF20F0010040EA03001B
:100450007047490040EB0000013A28BFB0F5000F9B
:10046000EDD2B0FA80FCACF1080CB2EB0C0200FA51
:100470000CF0AABF00EBC25052421843BCBFD040A0
:100480001843704792F0000F81F4000106BF80F41A
:1004900000000132013BB5E74FEA41037FEA226CDD
:1004A00018BF7FEA236C21D092EA030F04D092F0A8
:1004B000000F08BF0846704790EA010F1CBF0020DC
:1004C000704712F07F4F04D1400028BF40F0004039
:1004D000704712F100723CBF00F50000704700F059
:1004E000004343F0FE4040F4000070477FEA226280
:1004F00016BF08467FEA23630146420206BF5FEA51
:10050000412390EA010F40F4800070474FF0000350
:1005100004E000BF10F0004348BF40425FEA000C17
:1005200008BF704743F0964301464FF000001CE0BF
:1005300050EA010208BF70474FF000030AE000BF15
:1005400050EA010208BF704711F0004302D5404253
:1005500061EB41015FEA010C02BF844601460020C5
:1005600043F0B64308BFA3F18053A3F50003BCFAE0
:100570008CF2083AA3EBC25310DB01FA02FC63448D
:1005800000FA02FCC2F12002BCF1004F20FA02F294
:1005900043EB020008BF20F00100704702F1200287
:1005A00001FA02FCC2F1200250EA4C0021FA02F2E8
:1005B00043EB020008BF20EADC70704753B94AB928
:1005C000002908BF00281CBF4FF0FF314FF0FF305B
:1005D00000F0D2B9ADF1080C6DE904CE00F028F8B6
:1005E000DDF804E0DDE9022304B0704700000000FC
:1005F0009FED0B6B41EC170B9FED0B5B27EE066B32
:10060000BCEEC66BB8EE464B16EE101AA4EE457B58
:10061000FCEEC77B17EE900A704700BFAFF3008077
:10062000000000000000F03D000000000000F0416C
:100630002DE9F04F099D884604468E46002B4AD18D
:100640008A4217465FD9B2FA82F64EB1C6F120034C
:1006500001FA06FEB740B44020FA03F343EA0E0E57
:100660004FEA17481FFA87FC230CBEFBF8F108FB82
:1006700011EE01FB0CF243EA0E439A4207D9FB1834
:1006800001F1FF3002D29A4200F2548101469B1AD6
:10069000A2B2B3FBF8F008FB103300FB0CFC42EAFB
:1006A000034294450BD9BA1800F1FF332CBF012443
:1006B0000024944502D9002C00F03F81184640EAFE
:1006C0000140A2EB0C0200211DB1F2400023C5E95C
:1006D0000023BDE8F08F8B4205D90DB1C5E90001BB
:1006E00000210846F5E7B3FA83F100294ED14345CE
:1006F000C0F01281824240F20F810846002DE8D0FE
:10070000C5E9004EE5E7002A00F0AC80B2FA82F6B7
:10071000002E40F0BB808B1A4FEA124EBCB2012172
:10072000020C80B2B3FBFEFC0EFB1C3342EA034317
:1007300004FB0CF29A420ED9FB180CF1FF382CBFC7
:100740004FF001094FF000099A4203D9B9F1000FA7
:1007500000F0EC80C4469B1AB3FBFEF80EFB183386
:1007600004FB08F440EA034294420BD9BA1808F19A
:10077000FF332CBF01200020944202D9002800F052
:10078000D1809846121B48EA0C409DE7C1F1200633
:100790008B4008FA01F400FA01F922FA06F728FA68
:1007A00006F88A401F4320FA06F3380C23431FFA49
:1007B00087FC1C0CB8FBF0FE00FB1E8844EA0844D2
:1007C0000EFB0CF8A0450ED93C190EF1FF3A2CBFD8
:1007D0004FF0010B4FF0000BA04503D9BBF1000F08
:1007E00000F0B880D646A4EB08041FFA83F8B4FBE7
:1007F000F0F300FB134403FB0CFC48EA0444A4455B
:100800000ED93C1903F1FF302CBF4FF001084FF017
:100810000008A44503D9B8F1000F00F09F800346FB
:1008200043EA0E40A4EB0C04A0FB02EC64457346C3
:10083000E04602D307D1F14505D2BEEB02036CEBD3
:10084000070C0138E0465DB1B9EB030264EB080424
:1008500004FA06F622FA01F3CC401E43C5E900640F
:10086000002136E7B1FBF2FC010C144680B296463B
:1008700041EA08412026904640EA01431046B1FB78
:10088000F2F1A3EB080341EA0C414BE7B740C6F194
:10089000200301FA06F221FA03F84FEA174E20FA74
:1008A00003F3BCB2B0401343020C190C80B2B8FB86
:1008B000FEF90EFB198841EA084109FB04F8884556
:1008C00051D9791809F1FF3C2CBF4FF0010A4FF0C4
:1008D000000A884502D9BAF1000F31D0A1EB080116
:1008E000B1FBFEF909FB04F80EFB19119BB243EAB8
:1008F0000143434535D2FB1809F1FF312CBF4FF0BE
:10090000010A4FF0000A4345BBD2BAF1000FB8D13B
:10091000A9F102013B44B4E7841A68EB0302012009
:100920009646EBE63A44A8F102082BE7ACF1020C3C
:100930003B4410E702393B44A9E63A440238BEE69C
:10094000A7EB0808A9F1020C4144B1FBFEF909FB31
:1009500004F8C9E7AEF1020E3C4444E7023B3C44D4
:100960005EE749468DE7A1EB0801CC46B1FBFEF9F5
:1009700009FB04F8B8E700BF704700BF73B500F08B
:1009800091FB05F025FE00F093F800F0A5FB3C4B31
:100990005A6912F4003211D1BFF34F8FBFF36F8F3A
:1009A000C3F85022BFF34F8FBFF36F8F5A6942F4E1
:1009B00000325A61BFF34F8FBFF36F8F304A5369D4
:1009C00013F4803328D1C2F88430BFF34F8F43F63D
:1009D000E074D2F88030C3F3C900C3F34E335B0137
:1009E00000F1010E01464EF001E003EA040646EA7A
:1009F0008175C2F8605201390FF007C8203B13F12E
:100A0000200FEDD1BFF34F8F536943F4803353610F
:100A1000BFF34F8FBFF36F8F00F07EFA00F08AF8BC
:100A200000F0A4FB164A136923F00403136100F0DD
:100A30007DFA00F0CFFA00200EF0AAFA00200EF0A6
:100A4000CBFB40F20113002001A9ADF804300EF0F9
:100A50005BF900B100BE00200EF0C6F800F0ECFA21
:100A60004FF08072AA214FF010400FF051FA00F0C1
:100A7000F7F905F0AFFA05F0EDFA002002B070BD0D
:100A800000ED00E00A4608B5014602480FF0F8F80C
:100A900000BEFEE7DD3C01347047FEE7FEE7FEE7FF
:100AA000FEE7FEE77047FEE7FEE705F0A3BD0000A6
:100AB00000B5B7B03C22002101A80FF029FA982216
:100AC000002110A80FF024FA2022174B41F2F03138
:100AD000C3F860224FF48052C3F860224FF0004206
:100AE000C3F86022114A6846C2F84C1A104AC3F88B
:100AF0004C227F2300934FF48013039306F0F4FFFE
:100B000000B1FEE7032310930823139301231190F0
:100B100010A81A93219328932F9306F0E9FB00B1B4
:100B2000FEE737B05DF804FB0090025600800256E5
:100B30000FECFFFF30B5ADF51B7D4022002168466C
:100B40000FF0E6F99422002111A80FF0E1F94FF41B
:100B5000C872002136A80FF0DBF908230124139393
:100B600023937D23CDE925341023022519222A93CE
:100B7000E12310A8CDE91E24CDE92045CDE9274584
:100B8000CDE92C34CDE92E4410951A951C9506F02C
:100B9000AFFB00B1FEE77F2300934FF08053CDE918
:100BA0000C344FF000534FF44032CDE90E344FF087
:100BB0004073CDE901234FF40013CDE90804CDE9DA
:100BC0000A05CDE90330CDE905000790684606F037
:100BD0008BFF00B1FEE7174B0024619304234FF411
:100BE0004005154ACDE93C033E9036A8CDE936458F
:100BF0003F93629207F0A8FB00B100BE4FF4800162
:100C000000200BF0FDFC4FF4000100200BF0F8FC7D
:100C100006F020FF07F0A8F907F0F0F907F0FAF95D
:100C200007F008FA07F016FA07F024FA0DF51B7D15
:100C300030BD00BF1400030314040203044B82B050
:100C4000C3F88C0AD3F88C320193019B02B0704731
:100C500000800256044B82B0C3F8A00AD3F8A03239
:100C60000193019B02B0704700800256002370B5CB
:100C700088B006935F4B0446984200F0A48003F1CD
:100C80007043984200F09F8003F11023984200F0D7
:100C90009D8003F17043984200F0988003F1102387
:100CA000984200F0938003F17043984200F08E80E8
:100CB00003F11023984200F08B8003F170439842B7
:100CC00000F0868003F11023984200F0818003F148
:100CD000704398427CD003F11023984278D003F1FE
:100CE0007043984274D003F11023984273D003F1FB
:100CF000704398426FD003F1102398426DD003F1F6
:100D00007043984269D003F11023984267D003F1F1
:100D10007043984263D0384B984262D003F17043DD
:100D200098425ED003F1102398425AD003F17043E9
:100D3000984256D003F11023984252D003F17043E9
:100D400098424ED003F1102398424AD003F17043E9
:100D5000984246D003F11023984248D003F17043E3
:100D6000984244D003F1102398423DD003F17043E0
:100D7000984239D003F11023984235D003F17043E3
:100D8000984231D003F11023984230D003F17043E0
:100D9000984240F6FF7318BF0023002601250793F1
:100DA000FF233146204601AACDE90363059301954F
:100DB00002950CF03FF92946204601AA02960CF054
:100DC00039F908B070BD6FF04043E6E70B4BE4E73C
:100DD0004FF0FF33E1E70A4BDFE70A4BDDE70A4B51
:100DE000DBE76FF07043D8E741F6FF73D5E740F6D5
:100DF000FF73D2E70060025400000354FFFF0F00AE
:100E0000FFFF0700FFFF0300FFFF010030B5134B9A
:100E100085B005467C2101AA02A8029305F054FC86
:100E20000346C0B90124019AAC4034EA020113D050
:100E300022437C2102A8019205F062FC50B97C217A
:100E400001AA02A805F040FC18B9019B9C4303D0FD
:100E5000FEE7FEE7FEE7FEE705B030BD0090005676
:100E600010B5012408212B4A86B0C2F8884AD2F86E
:100E7000883280200593059BC2F8881AD2F8883200
:100E80000493049BFFF7DAFE4FF48070FFF7D6FE61
:100E90002046FFF7D3FE0220FFF7D0FE0420FFF725
:100EA000CDFE0846FFF7CAFE4FF40070FFF7C6FEFE
:100EB0004FF48060FFF7C2FE4FF40073C2F8983A17
:100EC000D2F898320393039B4FF48043C2F8983AC8
:100ED000D2F898320293029BC2F8980AD2F898325C
:100EE00020200193019BFFF7B5FE4FF48050FFF7E0
:100EF000B1FE4FF08040FFF7ADFE4FF00040FFF72E
:100F0000A9FE1023C2F8AC3AD2F8AC320093009B91
:100F100006B010BD0080025608B501200DF07EFD20
:100F2000BDE80840012005F077BB0000102270B535
:100F3000234B88B0C3F86C2AD3F86C1200250291B9
:100F400002992049C3F82C2AC1F82C22C3F85C2A44
:100F5000D3F85C32072401930226019B20231A4810
:100F600003A9CDE903360794CDE9055505F052FDF7
:100F70004023CDE903360123134803A9CDE9053504
:100F8000079405F047FD4FF46123104C104A2046AA
:100F9000C4E900230C23C4E90255C4E90535C4E9BA
:100FA0000755C4E9095525610CF030FF00B1FEE793
:100FB0002268136823F00053136008B070BD00BFAF
:100FC0000080025600900256001002560CF80434BD
:100FD000001000521FB54FF00042154B0324C3F818
:100FE000602AD3F860120191019903F58051C3F88A
:100FF000202AC1F820224FF08042C3F8602AD3F89B
:10100000600200900098C3F8202AC1F8202200F066
:10101000B7F800F0BFF8022302A90120CDE902349D
:101020000BF02EFF214603480BF080FF04B010BDEB
:10103000008002560A00003008B51048FFF716FE7F
:101040000F48FFF713FE0F48FFF710FE0E48FFF79B
:101050000DFE0E48FFF70AFE0D48FFF707FE0D488C
:10106000FFF704FE0C48FFF701FE0C48FFF7FEFDFA
:10107000BDE808400A48FFF7F9BD00BF0070025400
:10108000008002540090025400A0025400B00254A8
:1010900000C0025400D00254004003540000035426
:1010A0000010035408B572B64FF05052074B9A60C7
:1010B000BFF34F8F4022FF2105480EF029FF402249
:1010C000FF2104480EF024FF62B608BD00ED00E0E9
:1010D00080E100E080E200E00122204B82B0C3F812
:1010E000782AD3F878220192019A4FF40022C3F8AB
:1010F0005C2AD3F85C220092009AD3F84C2242F08A
:101100000F02C3F84C22D3F84C2242F48062C3F899
:101110004C22134AD2F8803023F48013C2F8803076
:10112000104B1A6822F480121A60D3F8802022F43F
:101130008012C3F88020D3F8002122F48012C3F873
:101140000021D3F8802122F48012C3F88021064ABE
:10115000136843F44053136002B070470080025696
:10116000003002520031025200E001E008B51020C8
:10117000FFF74CFEBDE808400F20FFF747BE000018
:101180000248034B036005F051BB00BFA0F80434D4
:1011900000FC0D5810B5034C204605F013FB022847
:1011A000FAD010BDA0F80434014805F063BB00BFBD
:1011B000A0F80434154A70B55369DB0323D5002326
:1011C000C2F88430BFF34F8F43F6E074D2F880301A
:1011D000C3F3C900C3F34E335B0100F1010E0146B6
:1011E0004EF001E003EA040646EA8175C2F8745243
:1011F00001390FF007C8203B13F1200FEDD1BFF3E9
:101200004F8FBFF36F8F002070BD00BF00ED00E077
:1012100030B5134D6B69DB031FD50A1A002A1CDD9C
:1012200000F01F031A44BFF34F8F8418C2431B1AE8
:101230000B442244203B5209203302F1010ED8BF57
:101240004FF0010E4EF001E0C5F85C0220300FF0C7
:1012500005C8BFF34F8FBFF36F8F002030BD00BFB5
:1012600000ED00E030B5134D6B69DB031FD50A1AA2
:10127000002A1CDD00F01F031A44BFF34F8F8418AF
:10128000C2431B1A0B442244203B5209203302F173
:10129000010ED8BF4FF0010E4EF001E0C5F8680214
:1012A00020300FF005C8BFF34F8FBFF36F8F0020C2
:1012B00030BD00BF00ED00E030B5134D6B69DB03BE
:1012C0001FD50A1A002A1CDD00F01F031A44BFF3C1
:1012D0004F8F8418C2431B1A0B442244203B5209EF
:1012E000203302F1010ED8BF4FF0010E4EF001E0A5
:1012F000C5F8700220300FF005C8BFF34F8FBFF361
:101300006F8F002030BD00BF00ED00E00B4A0346A8
:10131000116810B509B90A491160106809490A4CE9
:101320000344091B8B4206D90FF054F80C230360C9
:101330004FF0FF3010BD1360FCE700BFACF8043481
:1013400000210534004006340040000001207047B1
:1013500008B50FF03FF8162303604FF0FF3008BDCB
:1013600008B50FF037F816230360FEE770B50D4699
:1013700014460E46731B9C4201DC204670BDAFF341
:10138000008006F8010BF5E74FF0FF3070474FF48F
:10139000005300204B6070470120704700207047C9
:1013A0002DE9F04101200E4614464FF00008104F81
:1013B000104D84B13988621C08E016F801EB05EB8A
:1013C000030C01338CF802E0013C2B802B888B420C
:1013D00003D2013AF1D1BDE8F081EAD14BBA2846F7
:1013E00002312B8000F0FEFAA5F80080E1E700BF93
:1013F000E0F60434B4080534074B10B51988074CDF
:101400000231204600F0FCFA0022054B1A602388C6
:101410005BBA238010BD00BFE0F60434B4F8043496
:10142000B0F80434F7B50C46154642B34FF6FF73D7
:101430001C4E32889A4207D01B4F3B6800215A1C31
:1014400032441B1B681C0EE0FFF7D6FF0028F3D1C7
:1014500003B0F0BD12F8011F013D04F8011B3188F3
:10146000013931800121B6F800E004EB030CBEF134
:10147000000F06D00138EDD109B1C7F800C0012036
:10148000E6E709B1C7F800C0002DF8D0AA23012172
:101490000DF107008DF8073000F0A4FAFFF7ACFF5C
:1014A000CBE700BFB4F80434B0F804342022014B79
:1014B0001A807047E0F6043410B5084C23882046A3
:1014C0005BBA238063F07F032370054B19880231D8
:1014D00000F088FA0023238010BD00BFB408053453
:1014E000E0F604344FF6FF72024B1A800022024BE2
:1014F0001A607047B4F80434B0F80434044AC0E900
:1015000000214FF0FF310022C0E90212704700BFF6
:10151000A1130034034AC0E900214FF0FF3282607A
:10152000704700BF2514003408B500F077FA00209A
:1015300008BD2DE9F8430026D2F800800746D8F808
:1015400008408946002C08BF04243546D8F80030EE
:10155000AB4201D8012005E04946384601F0F1FCD4
:1015600010B90020BDE8F883D8F80430022C14BF6D
:101570009A5933F815203846D31701F034FC264425
:101580000028EED00135E1E770B515680446AE6875
:1015900001F0D7FC30B1314620466A68BDE87040A2
:1015A00001F0FABD70BDF7B5002305461468D4E913
:1015B0000167E360AB6813B9012003B0F0BD0122FD
:1015C0006946284600F0BEFF0028F6D03FB1002E45
:1015D000C2BF9DF8003006F1FF3607F8013BE36813
:1015E0000133E6E7F0B51B4C89B04FF4EC720021F3
:1015F00004AE054620460EF08BFCFFF795FF304603
:101600000021FFF787FF96E807006E4684E8070091
:1016100004F10C0700213046FFF770FF96E80F0039
:1016200087E80F000023C4E907337DB9012384F85C
:10163000D03109B0F0BD334601210C3250685E1C38
:101640000028F8D101B12362E561EFE72A46194687
:10165000F4E700BFB8180534032810B508D80138DE
:10166000022824D8DFE800F002142100114810BD40
:10167000403303F07F03D20143EAC15302F47E52A8
:1016800013430F2843F4F0130CBF18460020EEE775
:1016900003F1400000F07F00D20140EAC15002F4A3
:1016A0007E52104340F48020E1E70348DFE740200A
:1016B000DDE700BF40108200400406007FB505460C
:1016C0001646104A0C461068516801AB03C31289D4
:1016D00028461A80FEF75CFE731EB04288BF18468B
:1016E00074B138B1421C2946204604B0BDE87040B0
:1016F0000EF09DBE01AB03CB1B882060616023818F
:1017000004B070BDFA3C01342DE9F0470546884627
:1017100000241668DFF85090DFF850A09CB0736882
:10172000A34201D801201CE06422002103A80EF08E
:10173000EFFB2046B1686B46376803AAB8474146BD
:101740002846CDF85890CDF85CD001F0FAFB38B1BE
:101750005146284603AA01F061FD08B10134DEE7D5
:1017600000201CB0BDE8F087331500348C5D0134D7
:1017700008B503680A710B600A460448044901F081
:10178000D7FCBDE80840FFF797BE00BFC41805347A
:101790009C59013470B51E4CFFF7A4FE20461D492C
:1017A00004F1240201F047FA50B3FFF79BFE022335
:1017B000002584F8D031236A94F82800E2690133C7
:1017C000013B0DD0114611F80C6B86421CD1124919
:1017D000D2E90132A1F154009847236AAB420CD1FF
:1017E00004220C230C49A4F87E30A1F15400C4F863
:1017F000802084F88420FFF7BBFF012384F8D031D8
:10180000FFF770FE002070BD0A460135D8E700BF23
:10181000B81805342C5E01343019053470B40C2628
:101820009DF80C50CE800D738B6070BCFFF7A0BF8D
:10183000002313B506496A46064800938DF8043024
:1018400001F0F9F90446FFF74DFE204602B010BD45
:101850007C5A0134B81805342DE9F3410024174DA2
:10186000074695F8D0318846022B164600948DF82D
:1018700004401FD11046FEF78BFD7F2828BF7F2034
:101880000D23421C314605F18400A5F87E30C5F8D1
:1018900080800EF0CCFD3A4605F1780105F1240078
:1018A000FFF766FF6A462846054901F0C4F9044679
:1018B000FFF718FE204602B0BDE8F081B8180534E5
:1018C0007C5A013410B5094B86B00446CDE904308A
:1018D000074901AA074801F0AEF9FFF703FE01200E
:1018E000019B2360039BA36006B010BDA7150034C5
:1018F0003C5D0134B8180534F0B51746102285B0A8
:1019000006460C4618460C9DCA801BB3402208317F
:10191000FFF7D4FE0A9BA3640B9BE364F5B12B692C
:1019200023666B6963662B6823656B686365EB6888
:1019300093B1AA68CDE90123042303930A4BA3655D
:1019400001ABE36530463A462146FFF711FF01201F
:1019500005B0F0BD0B72DDE7A365F3E70023C4E932
:1019600015552365EEE700BF3315003470B50D46FD
:1019700014460646FFF79AFD0A23EB8040F2013336
:10198000AB60A3B2240C44F4803429463046EB60AB
:101990002C610022BDE87040FFF7EABED0E90132B9
:1019A000013B9A4207D20368995400218368026878
:1019B00001338360D154704707B5084B8DF8071089
:1019C0001B783BB14FF0FF33012205480DF10701B1
:1019D0000CF0FEF803B05DF804FB00BFE2F604343F
:1019E0000CF8043408B58AB24FF0FF3301460348BF
:1019F0000CF0EEF8B0FA80F0400908BD0CF80434A1
:101A000008B58AB24FF0FF33014603480CF037F9AE
:101A1000B0FA80F0400908BD0CF804340022014BF4
:101A20001A707047E2F6043410B5141E0ADA013851
:101A3000012807D90EF0CEFC09234FF0FF340360D4
:101A4000204610BD064B1B78002BF9D0A2B24FF0F8
:101A5000FF3304480CF0BCF8002818BF0024EFE75F
:101A6000E2F604340CF804342023022AF0B50B709B
:101A70004FEA107320DD01246FF0030C0825013AB2
:101A80000A2B03F1370703F1300634BF33463B46D8
:101A9000013D0B5504D10824002321444B70F0BDB7
:101AA0000CFB04F3661C1C3320FA03F3B24203F070
:101AB0000F03F1D03446E3E70024EDE70FB407B598
:101AC00004AB53F8042B00210448019300F004FAFE
:101AD00003B05DF804EB04B0704700BFB9190034DF
:101AE0001FB5CDE9010100210448039101A900F0CF
:101AF000F3F90398013805B05DF804FB9D19003433
:101B00002DE9F74F04468A4616468AB305F0A2FF30
:101B100000230746024651462046FEF74FFD4FF48C
:101B20007A758346A4FB05013A46002305FB0A119A
:101B3000FEF744FDABFB0532DFF83C90C31AA4FB73
:101B40000901019309FB0A1100233A46FEF736FD0D
:101B5000019BABFB0989B360A3FB0535A0EB080033
:101B6000C01AF0600020C6E9007B03B0BDE8F08F2A
:101B70004FF0FF30F9E700BF40420F0038B52DEDC0
:101B8000028B05460C4605F065FF214608EE100A5B
:101B90002846FEF7CDFCDFED067A00EE100AB8EE1F
:101BA000488A20EE270A80EE080ABDEC028B38BD79
:101BB00000007A44094B82B05B69094A0193019B9A
:101BC00013F4803F074B08BF1346019A43F480602B
:101BD00012F4003F08BF184602B0704700ED00E065
:101BE000000001050008010510B5044605F032FFAC
:101BF000206006F0B9F96060FFF7DCFF40F2864232
:101C00000023A060C4E9032304F11400BDE81040E0
:101C100000F07AB808B1FFF7E7BF704730B501238D
:101C20008BB003220D212648FFF748FF01A8FFF7DC
:101C3000DBFF2448FFF742FF40F286430499224C21
:101C400088B29842A4F10802059B18BF224604F10D
:101C50005000FFF733FF04F1810304F186023721BE
:101C600004F18B00FFF72AFF04F0E8FC014604F1C1
:101C7000A900FFF723FF154D019904F1C20091FB64
:101C8000F5F1FFF71BFF029904F1DB0091FBF5F181
:101C9000FFF714FF0E4B04F10D02586904F108031D
:101CA00010F4003F0CBF1146194610F4803F18BFD6
:101CB0001A4604F1F400FFF701FF0BB030BD00BF7E
:101CC000613301347E3301344E33013440420F001E
:101CD00000ED00E0036803F04053B3F1005F10D063
:101CE00003F1704CDCF1000242EB0C02B3F1405FF7
:101CF00014BF1346032351F823204068B2FBF0F0D1
:101D000070470223F7E7000070B594B0054604A8B9
:101D100006F0C0F906F028F9064609F0EBFA009043
:101D200009F028FB019009F065FB029009F0A2FB85
:101D3000069B0F4CB3F1407F039014D1694610A865
:101D4000FFF7C8FFB0FBF4F612A8FFF7C3FFB0FB24
:101D5000F4F40023064A2B60564354436E60C5E9F1
:101D6000024314B070BDB6FBF4F42646F1E700BFA1
:101D700040420F00094AD2F8FC3043F08073C2F8A9
:101D8000FC30074BD3F8042E42F00102C3F8042EB6
:101D90004FF00042C3F8002C704700BF00ED00E098
:101DA000003000E000232DE9F04F966891B016F066
:101DB000040714468DF83F300CD099421F4609DACB
:101DC000424210464FF02D0761EB4103194623684C
:101DD000013B236016F0080F14BF4FF041094FF08C
:101DE00061094FF03E080DF13F0A06F0100BA9F112
:101DF0000A09C5B2BBF1000F50D005F00F0202EB8B
:101E00000903DBB20A2A02F1300550EA1F1128BF8C
:101E10001D4650EA01020AF8015D08F1FF33C8F1DE
:101E20003F0539D106F001024FB142B92D214033AF
:101E30006B4403F8401CC8F14005A8F10203216877
:101E4000002A14BF302020204A1B8D4206F00206D3
:101E500002F1010202DCB1F1004F00D10122013A8E
:101E60002CD036B36FB32D2103F140026A4402F83F
:101E7000401C013500260DEB0307E36817F8011B32
:101E8000206901369847AE42F7D1A3689B071FD45B
:101E9000284611B0BDE8F08F9846AAE700230A2231
:101EA000FEF78CFB303500EB8003A5EB4305EDB26C
:101EB000AFE70DF803000135013BD0E70FB1A942B0
:101EC000D1DA0133D6E72021E3682069984701354C
:101ED0002368AB42F7DCDBE72DE9F04F2DED028BF9
:101EE0000746884691461C46002599B019F8011B03
:101EF00029B9284619B0BDEC028BBDE8F08F0A293C
:101F000003D14046B8470135F0E72529F9D1002330
:101F1000CDE90333CDE90537CDF81C80002008E07A
:101F2000DDE9031251EA020611D1059A42F00102DD
:101F3000059219F8011B392900F2B0812C2900F211
:101F40008C81002900F0B8812529DAD0B4E10A2675
:101F500018B1724304920120EBE771430391DDE76E
:101F6000059A42F00202E3E70A22303920B10498D0
:101F700002FB00110491EEE7039802FB0011EDE76C
:101F80000133D6E76339152900F29681DFE811F0B5
:101F90002000840094018C00940194018400940139
:101FA000940194019401940194016E0094019401B0
:101FB0002300940116009401940178002646002124
:101FC00056F8040B03AAFFF7EDFE344605448DE7EF
:101FD00014F8041B95E754F804BBBD4BBBF1000F8C
:101FE00008BF9B465846FEF7D3F9049B0646984225
:101FF000A8BF1E46002B059B08BF064613F0020330
:1020000000931CD04FF0000A5A46A2EB0B018E42FF
:1020100018DC002EACBF0AEB06030AF10003009A9D
:102020009A460ABB554461E720214046B8470AF169
:10203000010A03990AEB06029142F5DCE4E7DDF8B8
:1020400000A0F6E712F8011B40460192B847019A3A
:10205000DBE720214046B8470AF1010A039A06EB64
:102060000A039A42F5DCDDE7F61AF7E7059B43F031
:102070000103059308230393059B43F0080305938D
:10208000059B002143F0100354F8040B03AA0593A9
:10209000FFF788FE054429E7059A261D42F0040251
:1020A00005922068C1178DE70734049B24F00704CC
:1020B000B4EC028B0BB906230493049EB7EE007BAD
:1020C000002E06F10103B2EE046BB8BF0123013B01
:1020D00078D1B5EEC08BF1EE10FA76D5B1EE485B53
:1020E000B6EE004B84EE076B36EE056B26EE077BF3
:1020F00051EC170BFEF77CFA4FF0000A4FF03F0B44
:102100000A220023CDE90001FEF758FA009B0BF1EB
:10211000FF3203F1300C00EB8003ACEB430C0BF10E
:1021200060036B4403F840CC0AF101039E4203BFF5
:1021300002F160030DEB03022E239A4608BF02F85A
:10214000403C009B12BF9346ABF1020B0AF1020A1E
:102150000A2B019B864673F10003D1D208AB03EB37
:102160000B02B245A6EB0A034FF0300103F1010365
:1021700002DCB6F1004F00D10123013B28D15645C6
:10218000B4BF002101210029A6EB0A0308BF0023E8
:10219000AAEB060208BF00225344B3425A4406F198
:1021A000010618D12E2102F160036B4403F8401C94
:1021B000013A302102F160036B4403F8401C013AFC
:1021C000731C0AE027EE067B81E7B0EE485B87E7E9
:1021D00002F80119D1E7B342EBD0B5EEC08BF1EEB6
:1021E00010FA07D52D2002F16001694401F8400C76
:1021F0000133013A039908A886188B42A1EB03002A
:102200004FF0200C00F1010002DCB1F1004F00D1D1
:102210000120013817D18B42CCBF002001200028BB
:10222000A1EB030608BF00261E44A3EB010308BF71
:1022300000234FF0000B134408AA02EB030A5E458B
:1022400004DC354452E606F801C9E2E740461AF8D4
:10225000011FB8470BF1010BF1E7A1F12D020C2A88
:102260002AD801A656F822F0611F0034571F003407
:10227000B9220034211F0034691F0034691F003463
:10228000691F0034691F0034691F0034691F00345E
:10229000691F0034691F0034691F00346C293FF442
:1022A0006FAE782908D862293FF66CAE46293FF414
:1022B000FBAE58293FF4E0AE3C214046B84721210F
:1022C0004046B8473E214046B847043403350DE642
:1022D000043D01340023C0E902328B88C0E90011BB
:1022E0001A44B1F9063002611A4442610888003884
:1022F00018BF0120704742680346118870B541B18C
:1023000002F110014160118A29B9C2680168FFF722
:10231000E1FF002070BD9078118900F03006302E6A
:10232000948A0AD1957C05F03005302D14D14FF6F2
:10233000FF75AC4210D10120ECE700F0F005202D34
:102340000AD1508941430C441969B2F9162021443D
:10235000196111445961EEE700F0C000802808BF00
:102360000421002EEFD1986801309860EBE770B53A
:1023700004460D46466863681A88AA4204D19B78D1
:1023800003F00F03082B07D12046FFF7B4FF636863
:10239000B342F0D1002070BD0120FCE710B54468C5
:1023A000A318436039B9012010BDE05CC854013363
:1023B000013AFAD1F7E700230132F9E7836810B553
:1023C00004460BB9002010BD01220368984700287D
:1023D000F8D0A368013BA360F5E72DE9F3418846F7
:1023E0000DF1070107461446FFF7E8FF064658B906
:1023F000BB6823B10026304602B0BDE8F081002C56
:10240000F8D001232370F5E79DF907309DF80740C8
:10241000002B21DA072504F07F0438460DF107016F
:10242000FFF7CCFF0028E5D09DF807301F2D03F003
:102430007F0214D93E2D8CBF0121FF211AB1002C3F
:10244000D8DA9942D6D11A0605F10705E5D4232D2D
:1024500002D113F0700FCDD1C8F80040CBE7AA40ED
:102460001443F0E770B5416803468A7886B002F0FD
:102470000F05082D1FD1002603691C680CB906B092
:1024800070BD236862689D68267329466846FFF719
:1024900021FF606804F10C0304900593AA78231DC2
:1024A00002F0C002802A18BF034668460493FFF773
:1024B000D9FFA468E2E73F2A27D802F030001028AD
:1024C00010D1D3E90402824201D000201070072D00
:1024D000CC6818690CD10146204606B0BDE87040B2
:1024E00000F01FB89006F2D500225B691A80C6E79B
:1024F0000A89214624B106B0BDE870400DF097BFAF
:1025000006B0BDE870400DF003BD02F0C0018029A7
:10251000B5D1002100699206016044BF5B69198052
:10252000ADE77FB50A4601466846FFF7D3FE30B1F6
:102530006846FFF797FF6846FFF7DDFEF7E707B04D
:102540005DF804FB30B50446154685B0A9B90268AC
:10255000114B9A4211D0102D06D82A4669462046C2
:10256000FFF7F0FF05B030BD102269462046FFF7A7
:10257000E9FF0028F6D0103DEDE7A368AB4201D299
:102580000020EFE72A462046236898470028F7D026
:10259000A3685B1BA360E5E79D2300340022FFF7DF
:1025A0001CBFF7B50E4601A907461546FFF7F6FF13
:1025B000044640B10199B1F5803F12D231B92846A5
:1025C00032890DF0A5FC204603B0F0BD3389994255
:1025D00007D10A463846294603B0BDE8F040FFF768
:1025E000B1BF0024EFE72DE9F3410F4601A9804672
:1025F0001546FFF7D3FF90B10026019C3046621CC0
:102600000DD2BB7803F0C003802B08D03B899342E6
:1026100005D3224629464046FFF794FF2E5502B0C7
:10262000BDE8F08173B50D4601A906461446FFF7D3
:10263000B5FFA8B1019AB2F5803F11D2AB78911CD9
:1026400003F0C003802B0BD02B898B4208D321468B
:10265000304621F8022B02B0BDE87040FFF772BF90
:10266000002002B070BD2DE9F743002407460D4657
:10267000A0462646A14638460DF10701FFF79EFE0B
:1026800080B14B469DF8071001F07F0252EA0D63BE
:1026900048EA03080B0644EA020406F1070604D4DC
:1026A000C5E9004803B0BDE8F083462EE3D1002021
:1026B000F8E737B50D4669461446FFF7D4FFA8B1D1
:1026C0002B89013B072B20D8DFE803F01A161F12D5
:1026D0001F1F1F04DDE90032C4E90032DDE90001FB
:1026E000914208BF98420CBF0120002003B030BDCA
:1026F000009B23600022F1E7009B23809BB2F9E757
:10270000009B237003F0FF03F4E70020EEE737B5EA
:102710000D4669461446FFF7A6FF30B1DDE9001209
:102720002B89082B03D1C4E9001203B030BD022B62
:102730004FEAE1700FD0042B03D0012B0FD0002003
:10274000F3E70B4602462160824208BF8B420CBF72
:1027500001200020E9E70BB22380DA17F4E74BB23F
:102760002370FAE7F7B51D4600230E462B70174677
:102770000B70136001A92A46FFF72FFE18B1019CC8
:1027800024B901232B70002003B0F0BDE30804F04E
:1027900007043B603470F7E713B50446052921D8D8
:1027A000DFE801F0030F1720201E0122204601A9B7
:1027B000FFF7C8FE18B19DF90430002BF5DB02B01D
:1027C00010BD08220021204602B0BDE81040FFF7EE
:1027D000B9BE01A9FFF7E2FE0028F0D0019AF1E7A7
:1027E0000422EFE70020EAE737B50D4601A90446C9
:1027F000FFF7D4FE034618B90023184603B030BDD6
:1028000094E8070085E8070001998A42F4D3A9609B
:10281000A268521AA260F0E78A6838B505460C46ED
:102820001AB9012063686B6038BD00212046FFF7AC
:1028300089FE0028F5D1F7E72DE9F0430B465168F2
:1028400014468A78064612F0C00C87B004D0BCF15A
:10285000400F6BD0002558E002F00F055F4F02F0EB
:102860003002202A57F8257023D006D8CAB9226929
:102870003B4607B0BDE8F0431847302AEAD10A8842
:102880006369072D1A8009D10A89206961460DF014
:102890003FFB63682169D868FFF743FE22696168DE
:1028A00005E0D4E9042393421CBF01201870304690
:1028B000DEE7022BD4F814802BD1042D29D803A9EC
:1028C000FFF792FF81460028C4D0059B9BB1616849
:1028D000B8F800304A899A42BCD90889226903FBBA
:1028E000002203A8B847054630B1B8F800300133DC
:1028F000A8F80030E9E74D46059B002BAAD13046E9
:1029000003A9FFF789FF0028A4D0284607B0BDE837
:10291000F083B8F8003022695C1C0889A8F80040F0
:102920004C899C4296D903FB0022C0E727690FB16E
:102930003A6832B91946304607B0BDE8F043FFF7B0
:102940002BBF022B07F1040816D103A9FFF74CFF98
:1029500000283FF47FAF42463B68616803A8984770
:1029600000283FF477AF059B002BF4D1304603A934
:10297000FFF752FF0546C8E7012B21D0052B27D0D2
:10298000002B7FF467AF1D46E94601350B2D3FF460
:1029900061AF012249463046FFF7D4FD00283FF4DD
:1029A00059AF19F9013B002BEFDB0D4B4246039366
:1029B00061683B68CDF810D0059503A89847D9E722
:1029C00008226946FFF7BEFD08250028EDD141E742
:1029D00004226946FFF7B6FD0425F6E74C59013499
:1029E0009D2300342DE9F04F002491B0054604A842
:1029F000CDE90244ADF80240A046FFF76BFCAB689E
:102A0000002B33D124B16289BDF802309A4239D10A
:102A1000DDE9053404A89D78FFF76DFC0028F7D1A7
:102A200015F0300F04D1059B1B88002B54EA049449
:102A3000002C00F0C680402C28BF402400226309EF
:102A400002A9934240F0B68014F01F0400F0B98050
:102A50004FF0FF3010AA02EB830353F8383CC4F167
:102A60002004E040C31A584258410CE06946284609
:102A70000DF1010301AAFFF775FE38B99DF8013089
:102A8000002BBFD1002011B0BDE8F08F019F04A83A
:102A90003946FFF76CFC002859D147454ED3059EB7
:102AA000059A937803F00F03082B00F08C8004A89C
:102AB000FFF721FC059B9E42F2D14FF0FF384745BE
:102AC0009DF800A03AD3089BD5F808901E68AB6823
:102AD0008EB3994593D13368D3F800B0BBF1000FA2
:102AE00008D053463A4631462846D8470028C9D030
:102AF000B668ECE7D3F808B0BBF800309F42F7D1D6
:102B0000594672680AA8FFF7E5FB716806F10C03E5
:102B10000E910F939BF80220331D02F0C002802A11
:102B200018BF0B460E9301235146284633730AAA59
:102B3000FFF782FEDAE799457FF461AF28469DF8FA
:102B40000010FFF729FE00287FF459AF9AE7059A95
:102B5000937803F03003202B19D1DDE90831994235
:102B60000ED1A24208D024B16189BDF80230994249
:102B700088D10023ADF8023014460DF10203099309
:102B800028469DF8001004AAFFF756FEDBE7002B4D
:102B9000F6D1069A3F2AF3D8510910AB03EB810115
:102BA000012302F01F02934051F8382C134341F8DF
:102BB000383CE5E751F8040B01307FF463AF013294
:102BC0003FE701205FE7B2F8008078E770B50C4678
:102BD0000646154611462046FFF7A3FC2A46214625
:102BE0003046BDE87040FFF7FDBEF0B585B00C463D
:102BF000CF6801A906461546FFF7F6FD18B900246F
:102C0000204605B0F0BDE368002BF8D0A3782A4633
:102C100003F03003202B394601A809D1FFF7D6FF76
:102C2000044601A93046FFF7F7FD0028E8D1E6E7A2
:102C3000FFF7D8FEF4E77FB50C4601A90546164616
:102C4000FFF7D2FD18B90024204604B070BD21461C
:102C5000324601A8FFF7BAFF01A904462846FFF74C
:102C6000DBFD0028F0D1EEE7D3B50C466946FFF74F
:102C7000FAFC60B10099019F0E4656EA5F07CB0748
:102C800045BFF243FB43C4E90067C4E9002302B037
:102C9000D0BD37B50D4669461446FFF7E5FFA8B12C
:102CA0002B89013B072B1FD8DFE803F01A161E12F1
:102CB0001E1E1E04DDE90032C4E90032DDE9000118
:102CC000914208BF98420CBF0120002003B030BDE4
:102CD000009B2360DA17F1E7BDF900302380F9E7A4
:102CE0009DF900302370F5E70020EFE7042213B5CB
:102CF0000C460DEB0201FFF725FC08B1019B236098
:102D000002B010BD1146FFF7F1BF13B508220C4603
:102D10006946FFF717FC18B1DDE90023C4E9002379
:102D200002B010BD1146FFF7F0BF10B5837804461E
:102D300013F030000A4686B010D02028B4F90610EF
:102D400004D1505AB0FA80F0400907E03028F8D09A
:102D5000102805D121B1505C80F0010006B010BDF3
:102D60003F2B09D803F00F03053B042B04D8DFE801
:102D700003F0090B0F030D0023890133013B17D129
:102D80000120EBE71088DDE71078DBE72089D9E741
:102D90006846E168FFF79EFA0028F1D0049901988F
:102DA000FFF7C3FF0028D9D06846FFF7A4FAF3E77E
:102DB00012F8011B0029E1D00020CFE7F8B5066822
:102DC00004461546C36826B90120E3682B44E36036
:102DD000F8BD876813449F4201D20020F8E7B0474E
:102DE0000028F1D1F9E7F0B51D46802A75F10003FE
:102DF0000646144685B007D28DF80420012201A9A9
:102E0000FFF7DCFF05B0F0BD002201A964F07F03ED
:102E1000E0B254EADF1554EA050701F8013B134616
:102E200002F10102F2D110336B4403F80C0C01A93A
:102E30003046E5E713460A89013A072A10D8DFE849
:102E400002F004080F0A0F0F0F0C1A780023FFF787
:102E5000CABF1A88FAE71A68F8E7D3E90023F6E749
:102E60000020704713460A89013A072A12D8DFE882
:102E700002F00409110C1111110E93F90020D3175F
:102E8000FFF7B1BFB3F90020F9E71A68F7E7D3E914
:102E90000023F5E700207047921843EB030182EA14
:102EA000E37281EAE373FFF79EBF13460A89013A92
:102EB000072A12D8DFE802F00409110C1111110ED3
:102EC00093F90020D317FFF7E7BFB3F90020F9E724
:102ED0001A68F7E7D3E90023F5E70020704707B544
:102EE00004220B680DEB02010193FFF767FF03B0AB
:102EF0005DF804FB1146FFF7F2BF07B5D1E90023E7
:102F000000921A0A8DF805201A0C8DF804308DF8FD
:102F100006201B0E082269468DF80730FFF74EFF8A
:102F200003B05DF804FB1146FFF7E7BF30B4144669
:102F3000002554EACF052B4641EA040230BCFFF7D6
:102F400052BF8A780B4602F00F02092A10D8DFE838
:102F500002F00505050D090B0B0B0F0B00211A885C
:102F6000FFF7E4BF0121FAE70221F8E70521F6E7C0
:102F7000002070472DE9F04715468A78064602F092
:102F8000C003402B0C4686B000F0C98053063CD4E9
:102F9000664B02F00F0153F82180B4F90630FBB103
:102FA0002B44A27802F0C000802805D12D68291E8C
:102FB00018BF01218DF8071002F0300120292DD013
:102FC00020D831BB0DB321463046FFF7BAFFE0B140
:102FD0002A4621463046434606B0BDE8F04718472A
:102FE00002F03002102A0BD129462046FFF79DFE41
:102FF00080F00100C0B28DF807000DF10703D0E7A3
:103000000120F8E7302900F08480002006B0BDE8F8
:10301000F0871B78002BD6D10120F7E7B4F9061012
:1030200059B31F88002FF7D0802802D063899F42B0
:10303000EBD802F00F02042A4AD802213046228837
:10304000FFF774FF0028E0D0A37803F00F03032BF1
:1030500015D14FEA87094A4600233046FFF7C3FEE1
:103060000028D2D031684FF0000A21BB4A463046D2
:1030700006B0BDE8F047FFF7A1BE6789D2E7042B91
:1030800002D14FEAC709E6E71022002102A80CF09E
:103090003FFFAA464FF000095246214602A8C0470A
:1030A0000028B2D0238909F101094F459A44F3D889
:1030B000DDF81490CFE72A4621463046C047002865
:1030C000A3D023890AF1010A57451D44F3D8A3E789
:1030D0004FF0000921463046FFF733FF002894D017
:1030E000A37803F0C002802A11D103F00F03053B3F
:1030F000012B0CD82A6821463046C047002884D0CE
:10310000238909F101094F451D44E3D884E72A4684
:10311000F1E71A8823889A427FF47EAF53E72B6841
:10312000002B3FF479AF2A1D56E700BF74590134D4
:1031300030B587B005466846FFF7CCF810B90120D6
:1031400007B030BD0199049A8B7803F00F03082B68
:103150001CD114681CB96846FFF7CDF8EEE7236868
:103160005A682AB121462846904768B90020E7E707
:10317000996828468B7803F0C003802B14BF6268DF
:10318000221DFFF7F7FEF0E7A468E3E72846FFF704
:10319000F1FE0028DFD1E9E770B5002304460D46B3
:1031A0001646FFF720FE30B1324629462046BDE8DC
:1031B0007040FFF703BE70BD13460A891946FFF73A
:1031C000EBBF10B40B89897801F0C001802908BFDA
:1031D0004FF0FF3311462AB100220133013B01D0E9
:1031E0008C5C1CB95DF8044BFFF7D6BF0132F5E7E4
:1031F0000B4630B41146044612B930BCFFF7CCBFC1
:10320000987812883F2803D81D89901CA84202D8BC
:1032100020460231F1E7002030BC70472DE9FF4124
:103220000E46174600211022044668460CF070FE38
:103230003A4631466846FFF77BFF18B9002004B0D4
:10324000BDE8F0814FF00008039D43462A46204622
:10325000FFF7C9FD0028F1D0216821B92A46204690
:10326000FFF7ACFDEBE7E268A3682A449A42E5D891
:1032700063683A46009168463146CDE90135CDF89C
:103280000C80FFF755FF039AE368AA421344E360FA
:10329000019B6360D2D1D2E7C96809B1FFF7BEBF15
:1032A0000846704701490248FDF7B2BF20002E349E
:1032B00000002E3403207047002070470320704721
:1032C0000020704701207047012070470048704778
:1032D000906601340048704720660134004870470A
:1032E0008865013400487047606001340149024834
:1032F000FDF78EBF00042E3400002E3430B5324C62
:10330000324DD3B020463249FDF782FF294631487D
:10331000FDF77EFF4FF4A472002168460CF0F8FD23
:10332000092340F2E9328DF800300123CDE905226E
:10333000CDE90132CDE90C32CDE910220992149287
:10334000254A26491592F9220A91CDE91823CDE99B
:103350001A3204214FF47972CDE91C21CDE91E12F5
:103360001F4ACDE90333CDE90733CDE90E33CDE96B
:1033700012338DF82C308DF85830179320928DF839
:103380008430269331938DF8DC303C9347938DF84D
:1033900034311723134A6FF0F7012B922032369203
:1033A000103A419220324C920F4A6846CDE94E23A2
:1033B0000323CDE9501301F03BF929462046FDF7E0
:1033C00051FF53B030BD00BFE0032E34E00B2E346C
:1033D00000042E34C00B2E34F0032E3400002E34A3
:1033E000E0072E34F09C817180166F4F03207047E8
:1033F000002070470320704700207047012070476D
:10340000012070470048704750230234004870473D
:10341000DC220234004870474422023400487047DE
:103420007C13023470B5A64B88B01A780AB9012211
:103430001A70A44B1A6842F002021A6001221A6044
:103440004FF0FF329A60DA6000221A619E4A546897
:10345000002CFCD0E5B2012DC4F30336C4F30324E1
:1034600040F0EA80052E40F0E780002C40F0E48038
:10347000964A5468002CFCD0E5B2172DC4F30336ED
:10348000C4F3032440F0FB80052E40F0F880012CAB
:1034900040F0F5808E4A5468002CFCD0E5B21C2D1B
:1034A000C4F30336C4F3032440F03481012E40F00A
:1034B0003181012C40F02E81864A5468002CFCD0CA
:1034C000E5B21A2DC4F30336C4F3032440F041815E
:1034D000012E40F03E81002C40F03B817E4A546832
:1034E000002CFCD0E5B21B2DC4F30336C4F3032437
:1034F00040F04F81012E40F04C81012C40F0498179
:10350000764A5468002CFCD0E5B2192DC4F303367A
:10351000C4F3032440F05C81012E40F059810A2C51
:1035200040F056816E4A5468002CFCD0E5B2212D43
:10353000C4F30336C4F3032440F06A81012E40F043
:103540006781012C40F06481664A5468002CFCD0ED
:10355000E5B2202DC4F30336C4F3032440F0778191
:10356000032E40F07481022C40F07181554A54685A
:10357000002CFCD0E5B21F2DC4F30336C4F30324A2
:1035800040F08681012E40F08381022C40F0808142
:10359000554A5468002CFCD0E5B21E2DC4F3033606
:1035A000C4F3032440F09581012E40F09281012C58
:1035B00040F08F814D4A5468002CFCD0C4F3033591
:1035C000C4F3032614F0FF0440F0A281012D40F063
:1035D0009F81062E40F09C81454A5468002CFCD007
:1035E000E5B21D2DC4F30336C4F3032404D1052E24
:1035F00002D1002C00F0AE810CF0ECFE0368002B31
:1036000000F0A6810CF0E6FE00680CF06FFE0523CA
:103610000022CDE905321D23CDE90343354BFB22C2
:1036200035490093CDE90156034634480CF028FB98
:10363000FB21334B334A1DE00CF0CCFE0368E3B1B1
:103640000CF0C8FE00680CF051FE05234FF0000E90
:10365000CDE9053E0123CDE903432B4BC722264983
:103660000093CDE90156034624480CF009FBC7211D
:10367000234B244A20480CF063F92448E5E70CF07A
:10368000A9FE0368D3B10CF0A5FE00680CF02EFE75
:1036900005234FF0010CCDE9053C1723CDE9034389
:1036A0001B4BCA2214490093CDE901560346134827
:1036B0000CF0E6FACA21124B124ADBE71348E7E79F
:1036C000901A053400000E5800500E5800F00E58A5
:1036D00000B00F5800700F5800500F5800300F58AE
:1036E00000E00F5800D00F5800100E5800400E5840
:1036F00000200E58464701343846013491460134C3
:10370000F347013478F40434F54601343346013488
:10371000FC4601340CF05EFE0368C3B10CF05AFEA7
:1037200000680CF0E3FD0123CDE905331C23CDE94E
:1037300003438D4BCE228D490093CDE901560346BC
:103740008B480CF09DFACE218A4B8B4A92E78B482E
:10375000E9E70CF03FFE0368CBB10CF03BFE0068DC
:103760000CF0C4FD01230021CDE905311A23CDE978
:103770000343834BD2227D490093CDE90156034692
:103780007B480CF07DFAD2217A4B7B4A72E77B486A
:10379000E8E70CF01FFE0368C3B10CF01BFE0068E5
:1037A0000CF0A4FD0123CDE905331B23CDE9034330
:1037B000744BD6226D490093CDE9015603466C48FF
:1037C0000CF05EFAD6216B4B6B4A53E76B48E9E786
:1037D0000CF000FE0368CBB10CF0FCFD00680CF0AF
:1037E00085FD01230A22CDE905321923CDE90343E2
:1037F000654BDA225D490093CDE9015603465C48EA
:103800000CF03EFADA215B4B5B4A33E75B48E8E7B2
:103810000CF0E0FD0368C3B10CF0DCFD00680CF0B7
:1038200065FD0123CDE905332123CDE90343574B42
:10383000DE224E490093CDE9015603464C480CF078
:103840001FFADE214B4B4C4A14E74C48E9E70CF0D9
:10385000C1FD0368D3B10CF0BDFD00680CF046FD5E
:1038600003234FF0020ECDE9053E2023CDE90343AB
:10387000474BE2223D490093CDE9015603463C48BF
:103880000CF0FEF9E2213B4B3B4AF3E63B48E7E70D
:103890000CF0A0FD0368D3B10CF09CFD00680CF0A7
:1038A00025FD01234FF0020CCDE9053C1F23CDE996
:1038B0000343384BF5222D490093CDE901560346C9
:1038C0002B480CF0DDF9F5212A4B2B4AD2E62B4888
:1038D000E7E70CF07FFD0368C3B10CF07BFD0068E7
:1038E0000CF004FD0123CDE905331E23CDE903438C
:1038F000294BF7221D490093CDE9015603461C4888
:103900000CF0BEF9F7211B4B1B4AB3E61B48E9E755
:103910000CF060FD0368CBB10CF05CFD00680CF0AE
:10392000E5FC01230621CDE905310023CDE9036340
:103930001A4BF9220D490093CDE9014503460C4885
:103940000CF09EF9F9210B4B0B4A93E60B48E8E784
:103950000A485CE6012320461360114A1360A2F571
:103960000052136008B070BD04470134384601347A
:1039700091460134F347013478F40434334601347A
:10398000094701340F470134154701341B470134FF
:10399000254701342C470134344701343C47013476
:1039A00000300E580020074B186003F58053186054
:1039B00003F580531860A3F540539860D8601861F0
:1039C0001860704700100E5830B5012400250123FF
:1039D00054EA0D05034A834011694B4023404B4094
:1039E000136130BD00000E58002810B50C460EDCE7
:1039F0001930FFF7E9FF2379084A03F00103DB00E0
:103A00001360236813F0070004D1936010BD4FF0DA
:103A1000FF30FBE76FF00100F8E700BF00E00F5850
:103A200030B50124002554EA0D05034A136923EA41
:103A30000403136130BD00BF00000E5870B50128AB
:103A4000DDE9046516DC49B900F5B024E23424034D
:103A50006261A361E6612562084670BD012909D152
:103A600000F5B020E2300003426200218362C662AA
:103A70000563F1E74FF0FF31EEE70000034A52F82B
:103A8000203043F0010342F82030704740F00F58D7
:103A900008B51A20FFF798FF0122024B00201A6098
:103AA00008BD00BF00F00F5810B50024034B1A20CA
:103AB0001C60FFF7B5FF204610BD00BF00F00F5897
:103AC000024A136943F080631361704700000E5887
:103AD000024A136923F080631361704700000E5897
:103AE00010B5137950799B03000400F480309BB229
:103AF000034343F6FE70146800EA440003439079E0
:103B0000400400F400301843D3799B0403F480236D
:103B10000343044840F821309268034B002043F8E7
:103B2000212010BD40F00F5884F00F58044A0020A7
:103B300052F8213043F0010342F82130704700BFB2
:103B400040F00F58044A002052F8213023F00103BE
:103B500042F82130704700BF40F00F58014B53F836
:103B60002100704784F00F582DE9F04300244FF0F6
:103B700001080F4606461146254685B0CDE90244A8
:103B80008DF80B8008FA05F919EA060F07D0AB1C6F
:103B9000002001AA01930134FFF7A2FF013119EAC5
:103BA000070F08D005F15303002001AA0193013447
:103BB000FFF796FF013101350A2DE3D1204605B00C
:103BC000BDE8F08370B500240125014305FA04F334
:103BD000194204D01046561CFFF750FF32460134FC
:103BE0000A2CF3D1002070BDF8B50024012640EA6C
:103BF000010506FA04F31D4205D01146571C0020AA
:103C0000FFF7A0FF3A4601340A2CF2D10020F8BD9C
:103C1000F0B500240646254601270B4B85B0CDE9BB
:103C2000023407FA05F3334208D005F138030020C7
:103C300001AA01930134FFF753FF013101350A2D29
:103C4000EFD1204605B0F0BD01000001F8B50546F2
:103C500000240846012606FA04F32B4203D0471C31
:103C6000FFF70CFF384601340A2CF4D10020F8BDD0
:103C7000FFF7ECBF002AF0B514BF4FF48A764FF47B
:103C80008E760024012785B005461A20CDE901442F
:103C90000E4403948DF80870FFF796FE094B1F60E1
:103CA00006EB4403611901AA002001930134FFF7D8
:103CB00017FF0846FFF7E2FE042CF1D1002005B003
:103CC000F0BD00BF00F00F58002210B504461146A9
:103CD000FFF7D0FF01220021201DFFF7CBFF0022BC
:103CE000012104F10800FFF7C5FF012204F10C00D7
:103CF0001146FFF7BFFF002010BD0000074AC1EBCF
:103D0000800010B50B1F01F13C040244D15843F868
:103D1000041FA342FAD1002010BD00BF88F00F5845
:103D200070B5002490B00E4614600C6069461546CC
:103D3000FFF7E4FF68462346326850F8041BC46965
:103D4000214499400133042B0A44F6D10021D200CA
:103D500032602B6804A850F8042BC46922448A40BE
:103D6000013104291344F6D10020DB002B6010B090
:103D700070BD10B5044610B3036803B3DB69984700
:103D800000236060A060E360236163616368A3B99E
:103D90001A4662620022E36AA2622276E26184F835
:103DA000202063B12146BDE810400420184730337D
:103DB0000132198A0907FAD5EBE70122F9E710BDAC
:103DC00008B5094B1A68824205D03921074B084AC9
:103DD00008480BF0B5FD084A12681AB13D21074B9F
:103DE000034AF5E71A6008BD941A05344C470134BC
:103DF00014F5043478470134981A0534D94701344E
:103E000008B5074B1B682BB96C21064B064A0748BF
:103E10000BF096FD064B1860C043064B586208BD78
:103E2000941A0534F5470134D1F504347847013448
:103E3000981A053400100E5808B5038A5B0706D49B
:103E400040F2D511034B044A04480BF079FDC068D9
:103E500008BD00BF1F480134B2F504343A480134AC
:103E6000CB6A70B504460D4613B10246022098474E
:103E7000238A5E0718D52046FFF7DEFF28B1C2214E
:103E8000244B254A25480BF05BFD0222244B1A6087
:103E90001A689007FCD44FF080421A601A685100EB
:103EA000FCD41920FFF7BCFD63680BB1204698478E
:103EB000238A03F0900353B11A4B1B68AB4203D023
:103EC000E121194B144ADDE70020FFF799FF238A0F
:103ED000DA0606D413F0C00F0AD02B6983B9EB6859
:103EE00073B92846FFF76CFF238A03F0C0033BB980
:103EF0000C4B1B68AB4203D1ED210C4B064AC1E7CA
:103F0000EB6A2BB122462946BDE8704003201847D2
:103F100070BD00BFA048013493F50434A9480134B2
:103F200000E00F58941A05340A4901343449013429
:103F300008B528B9F8211A4B1A4A1B480BF000FDA6
:103F4000C3691BB1FA21194B164AF6E7C36813B3CC
:103F5000036923B14FF48171154B124AEDE74368B1
:103F6000036183684361436A8362C3684360C368D3
:103F7000836083686BB91A4600234262C3600023E2
:103F800080F8203008BD30330132198A0907FAD58C
:103F9000F2E70122F9E7436830334360EFE700BFFF
:103FA000A24901346EF50434A9480134BD490134F5
:103FB000ED4901347047000038B5044600285DD053
:103FC0002F49014009D04B42194001F5B023E53398
:103FD0001B03DA6B2B480BF053FEC4F3090313B138
:103FE00029480BF0B5FE14F4700F02D027480BF0EF
:103FF000AFFEE50102D526480BF0AAFE14F0C06F13
:104000000ED024480BF0A4FE234B00211A6923484C
:104010000BF036FE224B01211A6920480BF030FECE
:10402000200102D51F480BF093FE61000CD51E4DF8
:104030001E48E9680BF024FE296A1D480BF020FE9B
:10404000E9691C480BF01CFEA20002D51A480BF0CF
:104050007FFEE30002D519480BF07AFEFFF7AAFFB6
:104060002246002340F2563115480BF009FE40F27B
:104070005A31144B144A15480BF062FC38BD00BF8E
:1040800000FC0F002E4A01345C4A0134824A01349C
:10409000A64A0134C64A013400200E58DE4A0134D3
:1040A00000300E58F34A013400E00F580B4B013436
:1040B0003F4B0134694B01348A4B0134AB4B013423
:1040C000C64B0134F34701349FF40434A94801344A
:1040D000014B1860704700BF9C1A053408B531B910
:1040E0004FF4BF71034B044A04480BF029FCC8622B
:1040F00008BD00BFA249013442F50434A948013487
:1041000010B50446B0B10368A3B15B6833B940F29F
:10411000AF11094B094A0A480BF012FC984720B925
:104120004FF4D971074B054AF5E72046BDE810402A
:10413000FFF71FBE10BD00BFED4B01342AF504345C
:10414000A9480134224C013410B50446B8B1C36A01
:104150001BB10146002205209847094B1B68A3426A
:1041600002D12046FFF72CFE00236360A360E360CA
:10417000236163616362A362E36184F8203010BD50
:10418000941A053410B50446FFF7DEFF2046BDE85B
:104190001040FFF7EEBD000010B5FFF743F9022213
:1041A0001F4B1A601A689107FCD44FF080421A60C6
:1041B0001A685200FCD440F2FF325A614FF0FF32CD
:1041C0005A621A6842F001021A604FF40012154B4D
:1041D000C3F88420BFF34F8FBFF36F8F4FF480017C
:1041E000C3F88410BFF34F8FBFF36F8F4FF40001FC
:1041F000C3F88410BFF34F8FBFF36F8F4FF0807100
:10420000C3F88410BFF34F8FBFF36F8F5A60064B14
:104210001B681BB1BDE810400620184710BD00BF49
:1042200000100E5800E100E09C1A053408B5154B4B
:104230001B680BB1072098474FF40012124BC3F8CC
:104240008420BFF34F8FBFF36F8F4FF48002C3F80A
:104250008420BFF34F8FBFF36F8F4FF40002C3F87A
:104260008420BFF34F8FBFF36F8F4FF08072C3F87E
:104270008420BFF34F8FBFF36F8FBDE80840FFF777
:1042800091BB00BF9C1A053400E100E073B5044601
:1042900030B940F249218C4B8C4A8D480BF050FBD1
:1042A000436823B94FF413718A4B884AF5E7037EBC
:1042B0008BB903680BB19B6823B940F25E21864B32
:1042C000824AEAE7984720B940F26221834B7F4A4D
:1042D000E3E7012323766068038A5B0712D5FFF7C3
:1042E000ABFD012303FA00F094F8203003F0FF0641
:1042F00043B3002837D0E36930EA030304D0012038
:1043000002B070BDC068EFE7754B1B68A34204D0D4
:1043100040F27A21734B6D4ABFE74FF40011724AA5
:10432000C2F88410BFF34F8FBFF36F8FE36923EAA6
:104330000000E061516060682146FFF791FD204672
:10434000FFF7F6FD6368188A10F0080033D0236980
:10435000002B00F0B780624B1A6832B98E21634B94
:10436000634A64489AE70646ECE76268128A1607D1
:1043700003D48F21604B5E4AF3E72269128A550607
:1043800003D491215D4B5A4AEBE71868FFF718FDFB
:10439000E06818B19A215A4B554AE2E723696360F5
:1043A0006369A360A36A636220616061A06263685D
:1043B00030336360A4E7002EA2D194F82030002BA4
:1043C00069D1012384F820306568E3681BB161215D
:1043D0004B4B4C4A61E7E36A1BB12A462146304603
:1043E00098472B8AD80705D5E2691AB14D21464B6B
:1043F000464AB6E713F0500F15D0394A11688C427F
:1044000003D12821424B434AABE7116819B12C2153
:10441000414B404AA5E74149096819B13021404B59
:104420003C4A9EE7146059071CD413F0900F0AD041
:104430002B4B1B689C4203D078212A4B314A2CE736
:10444000E868FFF7DDFC2B680BB1284698472B8AFC
:104450005A071AD52846FFF7EFFC30B1A421314B9B
:10446000284A1AE740F2FF30EBE79DF80420AB68DA
:1044700060F3000269468DF804200093FFF7B4FA58
:10448000294A136843F001031360E36A1BB12A460B
:104490002146012098476068038A5B0710D5FFF723
:1044A000CBFC012303FA00F5002D7FF428AF214651
:1044B0006068FFF7D5FC2046FFF73AFD28461FE766
:1044C000C568F1E702201BE7A2490134FBF404347C
:1044D000A94801342B4C0134664C0134224C013480
:1044E000941A0534C84C013400E100E0F54701346A
:1044F000D4F4043478470134F24C01348E4D013445
:10450000DA4D0134B3F40434BD490134FEF504340A
:10451000124E0134EAF504343A4E0134981A053447
:10452000D9470134A048013400E00F58F8B5364BA4
:10453000364C9D68236843B323685B6833B940F207
:10454000BD31334B334A34480BF0FAF923685B68CA
:104550001B8A5F070CD425F47F7020F00300FFF75F
:104560002BFD23689BB940F2DE312C4B294AEAE748
:1045700023685868FFF760FC20B140F2CA31284B2D
:10458000244AE0E725F08050E9E72846E7E723687A
:104590005B681B8A13F0040320D122685268D2683A
:1045A0002A4014D0012721681E48C96922FA03F65F
:1045B000F60707D51E0356F800C046F800C007FAF4
:1045C00003F6314301330A2BF0D12368D961BFF3DD
:1045D0004F8F0D4B1D61BFF34F8FF8BD2368586897
:1045E000FFF72AFC20B140F29D310D4B0E4AAAE79D
:1045F000EB00ECD50D4BDA68DA602368DB692268E2
:1046000043F00103D361E2E700100E58941A053419
:10461000644E01345EF50434A9480134F547013491
:10462000A04801343C500E5885F4043400E00F5883
:1046300090F82C10794A7A4B2DE9F041002914BFEB
:104640001C461446E4B012944469D0F8AC6013944C
:10465000846A0796CDE9144490F85840D0F8D860A1
:10466000002C08BF1346C46E08961B94D0F88040F7
:104670001693CDE91C4490F8DC40036C002C14BF69
:104680000424022444F00104ADF81440D0F898400A
:10469000DFF89CC1ADF8164007AC069490F83441A1
:1046A0001793002C14BF04260226436D46F0010622
:1046B000CDE91833CDF868C0ADF82460D0F8F060CB
:1046C0000BAFADF82660D0F804610A970B96D0F8CE
:1046D00030611EAF40F2014E0C963D974FF082764E
:1046E00040F2024705AD3A95056912A91E95C568C5
:1046F00009AC1F9585680DF1880820954568CDE9BE
:104700003B6E2195456ACDE93F812295056ACDE949
:1047100041462395C5693E972495856916AA259536
:10472000CDF80CE1C16BCDF828E12691816B1AAB75
:104730002791416B01AC2891016B3AAD299126A9D3
:10474000CDE94417016D2A91C16C2B91816C2C919C
:10475000416C2D912AA9CDE946120022816ECDE946
:1047600048262E91416E2F91016E3091C16D31918D
:104770002EA9CDE94B17C16FCDE959423291816F16
:1047800002AC3391416FCDE95C423491016F03ACCF
:10479000359132A9CDE94D1304230D93012358938C
:1047A0005B93619304ABCDE9623258AB0E93032364
:1047B000CDE95F4248AC0494D0F838410195379375
:1047C00041AD0FAB5E920392CDF8D8C002950F9425
:1047D000D0F83C41CDE93832124B0DA9CDE94F322A
:1047E000114BCDE95122CDE9543136AB5693D0F877
:1047F00044315392032B8CBF4FF0FF330B4A10947C
:1048000098BFD356D0F840414FA81194ADF85C3111
:104810000CF0D8FA64B0BDE8F08100BF4004040891
:10482000400484080C010100C50D01341DF6043458
:1048300040108400027D436802B11B688068184400
:1048400070470000034AD2F8043E43F00403C2F864
:10485000043E7047003000E0062808B506D1FFF797
:104860002FF9BDE808400020FFF712B90020FFF73C
:104870001BF9BDE80840FFF72BB92DE9F0470546C5
:10488000164680460F46002401F10109C0F1010AD5
:10489000336883B13046FFF7CDFF327D736802B1D4
:1048A0001B68F2688542134403F1FF331CD399421D
:1048B00004D84C1B01342046BDE8F08785420AD15C
:1048C000874228BF0746984538BF9846C7F101047C
:1048D00044443836DCE79D42FBD8984538BF9846BB
:1048E0002F460AEB0804F4E79942E9D28142F0D35B
:1048F000874228BF07468846A9EB0704E9E700007E
:10490000094B1A68D2070DD51A68002042F04C52A4
:1049100042F44C121A601A6842F04C4242F44C02C3
:104920001A6070470120704700FC0D58054B1A684B
:10493000D20743BF1A68002092B2012048BF1A6014
:10494000704700BF00FC0D580B4B00B51B68DB0720
:104950000FD570B14FF0080E4EF001E0074B043850
:1049600053F8042B40F8042F0FF007C000205DF827
:1049700004FB0120FBE700BF00FC0D5810FC0D58A4
:10498000D0E90202101A704790F82800C00870475A
:104990002DE9F0410C460121064600250F4607FA95
:1049A00005F3334207D0002001F10108FFF7D6F8E4
:1049B000414644F8040B01350A2DF0D1BDE8F081E1
:1049C000F0B5A54BA54CDE6F236D074613F4807040
:1049D000154685B003D000210846FFF7BFF8032F26
:1049E00000F29880DFE817F00400B500BF00D300A4
:1049F0000023D4E908219219666B41F10001C4E952
:104A00000821A36426B12A461846B4F93010B047ED
:104A10002268960640F183804FF404532365D00644
:104A200042BF236D43F480532365236DD9050FD511
:104A30000026012331460193304603F1807301AA19
:104A400002930396FFF74CF831463046FFF76EF8B5
:104A5000236D1A0506D50020FFF736F9236D43F0C4
:104A600010032365216DCB0401D5FFF749FF8F04A7
:104A700010D50122002140F2FF30FFF775F8236DB9
:104A800018432065C0B228B10122002140F2FF3056
:104A9000FFF798F8236D5E0410D5012240F2FF3134
:104AA0000020FFF761F8236D18432065C0B228B1DC
:104AB000012240F2FF310020FFF784F8236D9805B2
:104AC0000ED5D5E906010122FFF74EF8236D1843F4
:104AD0002065C0B220B1D5E906010122FFF772F8C6
:104AE000236D59050CD50121A869FFF791F8236DB5
:104AF00018432065C0B218B10121A869FFF7A6F8D4
:104B0000238E01332386236DDA0503D50022544B0F
:104B1000C3F8842005B0BDE8F040FFF793BE50060F
:104B200002D54FF4824379E7910702D54FF44073E1
:104B300074E7530702D54FF4A0636FE702F009034F
:104B40005E1E734273411B02170748BF43F40063A4
:104B500064E7D4E902329B1942F10002C4E902324F
:104B60006064A663D6E7626CD4E90A31821A9B18A6
:104B700041F10001C4E91220C4E90A31D4E9043248
:104B80009B1942F10002C4E90432E663C2E7E36C18
:104B90002664C01AD4E906329B1942F10002C4E926
:104BA00006322368E064002B4AD0236DDB0404D571
:104BB0002C48FFF7C9FEFFF7B9FE236D9F040AD505
:104BC0000021012240F2FF30FFF70EF840F2FF30E3
:104BD0002549FFF7DDFE236D5E040AD540F2FF3163
:104BE00001220020FFF700F840F2FF301E49FFF7D6
:104BF000CFFE236D98050AD5D5E906010122FEF7FF
:104C0000F3FFD5E9060318491843FFF7C1FE236DEA
:104C1000590507D50121A869FFF72AF81249A869A3
:104C2000FFF7B6FE236D1A0503D500200E49FFF7E6
:104C300065F8236DDB0503D500210846FEF782FFEA
:104C4000666B002E3FF466AF218E2A4601390320A1
:104C5000064B09B2B0475DE7003000E0A01A05340A
:104C600000F00F58341B0534F41A0534D81A0534F3
:104C700010B50C4608B9002010BDD0F82C311B68C7
:104C80005B6A9847002CF7DB611C0368002BF2D0AD
:104C9000437D002BEFD10139EED03830F5E710B568
:104CA0000C4608B9002010BDD0F82C311B681B6AD7
:104CB0009847002CF7DB611C0368002BF2D0437D82
:104CC000002BEFD10139EED03830F5E720B1D0F824
:104CD0002C311B689B6A1847704700002DE9F84F7C
:104CE0000C46002900F00181FFF7ACFD012800F31C
:104CF000C380002800F0C28001287F4E18BF002624
:104D00007E4BC4F82C61DB6FC4F83831002E00F004
:104D1000EF80D4F828317A4A43F00803C4F82831E8
:104D2000784B226103F11502E260734AA360964258
:104D300040F0A6802F3363604FF0FF312046FFF72D
:104D400097FF002800F0A28001220023383050F89D
:104D5000381C002940F0A380C4F82431002A40F018
:104D600097802046FFF7B2FF0546002800F0A48098
:104D7000024665494FF05050FFF77FFD2A4607462F
:104D800001F170414FF01050FFF777FD2A460744BC
:104D90005E495F48FFF771FD2A4600EB070801F105
:104DA00070415C48FFF769FD5B4FDFF87CA1DFF8DD
:104DB0007CB1804407F5DF212A46384601F2FF71B5
:104DC000FFF75BFD07EB0A0181462A4607F17040B9
:104DD000FFF753FD07F5E02781445F45C844E9D15B
:104DE0002A4638464D49FFF748FD2A46074601F155
:104DF00070414B48FFF741FD2A4607444FF02041E0
:104E00004FF0C040FFF739FD47440744C4F8207114
:104E1000002161612046FFF72BFF0146002854D195
:104E20002046A161FFF73BFF0546002853D13368B8
:104E3000DB699847038A6A1C082B53D163692DB23A
:104E4000C4F81C5193B1E5692846FFF7F3FC68B933
:104E5000D4F82811284641F01003C4F82831FFF790
:104E6000E9FC18B941F03001C4F828110020206095
:104E7000C4F83001BDE8F88F002641E7294E3FE72E
:104E8000284A96427FF458AF333354E7C4F82401DC
:104E9000D4F8283143F00203C4F8283161E710F850
:104EA000231C012906D150F82C2C134450F8302C27
:104EB0009B1A002238304AE7D4F82831C4F8200180
:104EC00043F00403C4F82831A2E7636904EB8302CA
:104ED000D161591C9DE7A16904EB8103C3F89C5083
:104EE00001319DE715463030A4E74FF0FF30C1E7B0
:104EF0006FF00100BEE700BFE4F60434003000E0CC
:104F00000001010162340134FFFF0F34FFFF1F3441
:104F1000000010340000102400002034FFFF3F3454
:104F200000003C2414F70434FFFF06F000003C347A
:104F300018B1C0F83011002070474FF0FF307047B3
:104F400038B50D460446A0B3FFF77CFC79B9016083
:104F5000D0F82C01FFF7F8F8FFF768F92846FFF7BB
:104F6000B7F80020144BDB6FC4F83C3138BD012981
:104F700015D1FCF719F9FCF71DF9FCF7FBFE0F4AF8
:104F80000F48136843F002031360FFF7A1F8FFF71F
:104F900003F9D4F82C01FFF7B3F82560E1E7022903
:104FA000DFD10368012BDCD1FCF7FEF8FCF702F936
:104FB000D7E74FF0FF30D9E7003000E000000E588F
:104FC00059480034000000002DE9F74F07460D4610
:104FD00021B12822002128460AF09AFF002F00F074
:104FE000D880B82200216E480AF092FF3B68002B5F
:104FF0005AD101213846FFF7A3FF4FF0010AD7F835
:105000003031674C002B52D06363D7F83431D7F876
:105010002C1164482360FFF761F801F0F7FA0022D1
:1050200000238346C4E908230026FFF70BFC07F1A1
:1050300018087B69B3423CD8002607F19808BB6981
:10504000B34243D80FF25019D9E90089FCF7ACF804
:10505000D7F82C01FFF796F8002142464B46084648
:10506000CDE90089FEF7EAFC42464B4601210020CB
:10507000CDE90089FEF7E2FC42464B4600210120C3
:10508000CDE90089FEF7DAFC012142464B4608468D
:10509000CDE90089FEF7D2FCD7F82C01FFF7F6F82E
:1050A000012820D120BFF7E74FF0000AA7E72360CF
:1050B000B3E758F8041F01360846FFF7BBFBD1E9F8
:1050C00002239B1A1918FCF7F7F8B2E758F8041FE7
:1050D00001360846FFF7AEFBD1E902239B1A1918E7
:1050E000FCF796F8ABE70228D6D12F4B0026D96FF4
:1050F000D4E908325B1842F10002C4E9083201F039
:1051000085FAD7F82C11A0EB0B0B3046FEF7E6FF23
:105110006663BAF1000F03D031463846FFF710FF3F
:105120009DB3D4E90832D4E902011B1842EB010215
:10513000D4E904011B1842EB0102D4E906011B1853
:1051400042EB0102D7F83011C4E9083259B940F6F0
:10515000B7318B4507D902F07DFC4FF47A73B0FB71
:10516000F3F3A3FB0B32C5E90632D4E90223C5E908
:105170000023D4E90423C5E90223D4E90623C5E9C1
:105180000423D4E90A23C5E90823584603B0BDE83F
:10519000F08F4FF0FF30F9E7DDCCBBAADDCCBBAA26
:1051A000A01A0534C1490034003000E0027D436894
:1051B00002B11B688068184470470000034600294C
:1051C000198A0CBF4FF0A0604FF0807011F0040FEF
:1051D00004D0114B40F004001360704711F0200F11
:1051E00003D00E4B40F00200F6E711F0400F03D061
:1051F0000B4B40F00300EFE7090649BFB3F912304B
:10520000084B5B421B0141BF03F47C73184340F021
:105210000100054BE0E700BF8CF6043489F6043446
:1052200082F604348FF604347CF6043470B50446F8
:1052300090B10126002290F827303344013B0CD175
:105240002046FFF79DFB05462046FFF79DFB06FB2A
:1052500000F35B1B5842584170BDE16A51F82210BF
:1052600001324E43EAE70000F8B51E46038C0446BF
:105270003360C36917467360042340220068B3603B
:105280000D46FCF71BFA94F82310642923D194F8F7
:1052900026100F20B1FA81F194F9253094F82820D6
:1052A0004909FCF7D9F9012300226B64238C286497
:1052B0002F660133013B2CD13368AB64236B83B37E
:1052C0001B686B65636BB3F900302046AB65FFF775
:1052D0006DFFE865F8BD012904D10023084694F864
:1052E0002820DEE70D2904D1002308220121032014
:1052F000D7E70D48122940FA01F000F0010038BF4D
:1053000001464FF0000328BF0121022094F8282015
:10531000C7E7E069696C50F82200013241436964D3
:10532000C8E700226A65D0E7BFFEFCFF30B40C4638
:105330001146D4E9002535B9063052F8200022691B
:1053400030BCFFF791BF2630F7E7F8B51E460123C2
:1053500033608B6800277360042314460D46B360E6
:1053600039463B46177002200822FCF775F9AB68F6
:1053700020641B6863643368A765A36400236365C6
:10538000EB68E3652B692366F8BD000030B58DB08E
:10539000054603A80C46FCF73DFC0B23E380069B67
:1053A0000022A360039B2146E360049B28462361FF
:1053B000059BA261636104230093029308AB0193F0
:1053C000034BC4F820D0E361FCF7D2F90DB030BD37
:1053D000331500342DE9F0478CB003AF044639464D
:1053E0000022068C731C013B35D121682248FCF752
:1053F00065FB2046FFF7DAFE05462046FFF7C0FAB8
:105400002946024694F828301C48FCF757FB3246E0
:1054100094F823101A48FCF751FB0025DFF86C8044
:1054200006F1FF39A8F1030AAE421BD81548FCF774
:1054300045FB236B63B1D3ED007AB7EEE77A636B7C
:105440001148B3F90030009353EC172BFCF736FBEF
:105450000CB0BDE8F087E06950F82200013241F855
:10546000040FC0E7A9450CBF5046404657F8041F3B
:10547000FCF724FB0135D7E799340134A934013412
:10548000D1340134F2340134F6340134EE340134D1
:105490002DE9F8430746007868B9012909D84FF487
:1054A000AA72174B02FB0131D1F82C01002818BF5A
:1054B0000846BDE8F883DFF8488000254446D8F860
:1054C0002C31BBB1D8F804904846FAF761FF064684
:1054D0003846FAF75DFF86420CD1324639464846D7
:1054E0000AF00EFF30B96D4205F4AA756019E0E7C5
:1054F0000125E4E708F5AA78002DF9D00020D8E7C7
:10550000981B05342DE9F0431D4611230C4689B044
:10551000DDF840800DF10409CB8006464B46284655
:10552000174608314246FFF79FFE114B2846C4E953
:105530001539FFF73BFE18F4007F606715D1284648
:10554000FFF71EFA0023626FCDE90430CDE9062390
:10555000084B2067A36704AB3A4621463046E36711
:10556000FCF706F909B0BDE8F0830020EAE700BFC8
:1055700033150034891500340EB417B588B10F4CBB
:1055800006ABA0212046059A0193FCF7A9FA002159
:1055900003190130013809D10121084A0846FCF7F6
:1055A0005BF903B0BDE8104003B070471A780A2ACF
:1055B00001D00D2A00D11970013BEBE7401E0534E4
:1055C000F0B506460C46B3B081680C30FFF760FFBB
:1055D0000546002800F0028129A8FCF71BFB0120EA
:1055E0008249FFF7C9FF01202C9A8149FFF7C4FFC8
:1055F0000120299A7F49FFF7BFFF01202A9A7E499F
:10560000FFF7BAFF01202F9A7C49FFF7B5FF309AC8
:1056100001207B49FFF7B0FF7A490120FFF7ACFF7B
:10562000162323A8E3800BF0B5FB04F1080318460A
:105630004FF4A87200210AF06BFC40220146686812
:10564000FCF73CF89DF89C202F1D012A13460FD033
:10565000102A00F0BB80202A00F0BA80302A00F027
:10566000B980502A00F0B880402A0CBF03230023E1
:10567000D5F828211B0443F0040112F0010F43F474
:10568000806343F0040308BF0B461007A36444BFC4
:1056900043F08063A364910748BFA36CA86844BF2C
:1056A00043F00073A364530748BFA36C4FF040025C
:1056B00044BF43F08073A36404F18C01FBF7FEFF49
:1056C000249B40221BBAC4F8CC302B69E868C4F88C
:1056D000D03004F58A71FBF7F1FFE868FAF758FE5D
:1056E00000F58A71C0F13F0221442698FCF7BCF90D
:1056F00000220023D5F82801C4E93623D5F81C314F
:1057000010F0100FC4F8E03040F2014318BF01233D
:1057100010F0200F40F2024018BF02200FA9CDE97F
:1057200017200591A8693849DFF8E4C013936B6925
:105730000790C4E93C0106A8CDF80CC00493C4F856
:10574000E430CDF818C003AB0DF1500CC4F8F800EC
:105750000220C4F8EC30CDF820C001234FF0080C33
:105760001A9005F59070CDE90F72CDE91532CDE9AB
:105770001B02C4F8E81014971997CDE91122CDF84F
:1057800074C01E97032721480DF1640ECDE909036B
:10579000C4E93F31CDE90C03C4E942311EA8CDF87C
:1057A0002CE00CAB0DF1240E05F592750E90214600
:1057B0003046C4F804E1C4F81031CDE920521F97F7
:1057C000CDF888C0FBF7D4FF33B0F0BD06234FE718
:1057D00005234DE702234BE7042349E70423214631
:1057E0001A4630460093FCF719F8EDE713350134FB
:1057F000283501343D3501345235013467350134E3
:105800007C35013491350134091700344B53003491
:105810002D5300342DE9F04F05460E4699B04FF058
:10582000FF310C30FFF734FE044648B904230093DF
:10583000042231462846FBF7F1FF19B0BDE8F08F8E
:10584000A04B042218604FF6FF73A868A4F85031EB
:10585000002384F84D3143074DBF40F20113C0F3DC
:10586000400384F84C31A4F84C31C0F3402384F851
:105870004E31EB6CC0F300201B0A934984F84F01B2
:10588000C4F83431FFF778FE94F84E1194F84D3196
:1058900094F84C2194F84F0100918C49FFF76CFE6D
:1058A000E06994F84F71FFF76BF8AB68024600931C
:1058B0003846EB6C8649FFF75FFE00F0CDFC00F048
:1058C000CCFC04F1180398460027DFF818A20593D2
:1058D0006369BB427ED804F198031F464FF0000B6A
:1058E000DFF804820493A3695B4500F28680E069D7
:1058F000FFF746F800270346012231462846009765
:10590000FBF78CFF6369BB4200F28B8094F84F7108
:1059100000F07CFE6F4902463846FFF72DFE94F8F2
:105920004C31C4E950561BB120466B49FFF700FBD0
:1059300000F06CFE0EA907462046FFF745FB00F07D
:1059400065FE0021C71B2046FFF7F2FA3A4663497D
:1059500094F84F01FFF710FEDDE91401FCF70EF992
:1059600000270A23CDE909730EAB0B934FF0FF33E9
:10597000CDE90C3308ABCDE9017300970222314623
:10598000636828468DED080AFBF7B6FF544994F882
:105990004F01FFF7F1FD40F20228A269BA427FF6FB
:1059A0004CAFAB68013713F0080F14BF4346022316
:1059B0009742049908BF43F48073009351F8043F61
:1059C00008BF0322049118BF022231462846FFF780
:1059D00099FDE2E758F8041F94F84FB10846FFF725
:1059E000E5FBD1E90212521A0346009251463A46AB
:1059F0005846FFF7C1FD01376AE757F8041F94F8CE
:105A00004FA10846FFF7D2FBD1E90212521A034612
:105A1000009241465A465046FFF7AEFD0BF1010B8E
:105A200061E701379F420CBF022301230793059BC7
:105A300094F84EB153F8048F0593002340460E931B
:105A4000FEF79EFF0F904046FFF7B0FB002310903B
:105A50001193BBF1000F03D04046FEF795FF0F9066
:105A60000EA8FBF72FFF119BDDF83C904B4502D0B1
:105A700001220092DCE6BBF1000F0AD1002331467F
:105A80002846079A00930F9BFBF7C8FEFBF7D0FE52
:105A900038E74046FFF78AFB4FF0010A069000EB1B
:105AA000090B4046FEF76CFFB0FBF9F08245E5D2EA
:105AB00058464A4606990AF0BAFCCB440AF1010A54
:105AC000EFE700BF80F70434A6350134B535013463
:105AD000DC35013448360134255E00346436013447
:105AE0008A360134123601342D3601342DE9F8435B
:105AF000064614460F46FFF7E9F84FF0FF3105461A
:105B00003046FFF7CCF8B4F912300646002B0EDD14
:105B1000002FB4F9422013DD791C8A420FFA81F874
:105B200008BF4FF000089A4203D1002405E04FF06F
:105B30000008E5B92C463368EBB92046BDE8F88388
:105B40004FF00008EFE7EB8ABB4201D0434509D193
:105B50002846FFF76BFB28B10F2CDEBF631C49F80A
:105B600024501CB238352B68002BECD1E3E700241D
:105B7000DFF82490F7E7F38ABB420AD13046FFF7FB
:105B800055FB30B10F2CDFBF034A631C42F8246081
:105B90001CB23836CFE700BF581B05342DE9F04F53
:105BA0001446936887B00093D2E900238846012009
:105BB0008E49FFF7E1FCA369DD0507D56369012084
:105BC00000938B49D4E90323FFF7D6FCA56915F4AC
:105BD000C04F32D015F4005F0CBF4FF06F0A4FF08A
:105BE000690A15F0FF0500F0BE8000264FF0FF396E
:105BF0003746804904F1180B5BF8042F142A10D99A
:105C00002369BA42A3EB0203CDE9002388BF1746FC
:105C1000334652464FF0010088BFB146FFF7ACFC57
:105C2000744901360A2E01D0B542E5D14B465246A1
:105C3000012071490097FFF79FFCA769B8054FD570
:105C400017F0FF0700F093804FF0000B4FF0690949
:105C50005D464FF0FF3A5E46012303FA0BF30393D0
:105C6000039AD8F818301A4213D004EB8503DB6985
:105C70002169B342A1EB030100915A464FF00100A4
:105C80005E4982BFDA461E464FF06909FFF774FC91
:105C90000135D8F81C30039A1A4213D004EB85035F
:105CA000DB692169B342A1EB030100915A464FF031
:105CB0000100534982BFDA461E464FF06F09FFF7D5
